:100000000C94DD000C9405010C9405010C94050181
:100010000C9405010C9405010C9405010C94050148
:100020000C9405010C9405010C9405010C94050138
:100030000C9405010C9405010C9405010C94050128
:100040000C9493070C9405010C944F020C94290214
:100050000C9405010C9405010C9405010C94050108
:100060000C9405010C9405010000000023002600FB
:100070002900556E6B6E6F776E2074797065005332
:10008000414B20696E64696361746573205549440E
:10009000206973206E6F7420636F6D706C6574657A
:1000A0002E004D494641524520544E503358585821
:1000B000004D49464152452044455346697265000A
:1000C0004D494641524520506C7573004D4946419B
:1000D000524520556C7472616C69676874206F7248
:1000E00020556C7472616C696768742043004D49D7
:1000F0004641524520344B42004D4946415245202D
:10010000314B42004D4946415245204D696E692CA4
:1001100020333230206279746573005049434320A4
:10012000636F6D706C69616E7420776974682049C3
:10013000534F2F49454320313830393220284E461D
:100140004329005049434320636F6D706C69616EB1
:100150007420776974682049534F2F4945432031F3
:10016000343434332D340000000000240027002AEA
:100170000000000000250028002B000404040404F3
:100180000404040202020202020303030303030144
:10019000020408102040800102040810200102041B
:1001A00008102000000008000201000003040700FE
:1001B0000000000000000000610A11241FBECFEF04
:1001C000D4E0DEBFCDBF11E0A0E0B1E0EEE8F5E1A4
:1001D00002C005900D92A43CB107D9F722E0A4EC2F
:1001E000B1E001C01D92AC37B207E1F710E0CDEDF0
:1001F000D0E004C02197FE010E94BA0ACC3DD1078D
:10020000C9F70E94DD070C94C50A0C940000CF9238
:10021000DF92EF92FF920F931F93CF93DF936C01C6
:100220007A018B01C0E0D0E0CE15DF0581F0D80166
:100230006D918D01D601ED91FC910190F081E02D41
:10024000C6010995892B11F02196EECF7E01C701D9
:10025000DF91CF911F910F91FF90EF90DF90CF90A2
:100260000895089580E090E00895FC01538D448D39
:10027000252F30E0842F90E0821B930B541710F051
:10028000CF96089501970895FC01918D828D98175E
:1002900061F0828DDF01A80FB11D5D968C91928D6A
:1002A0009F5F9F73928F90E008958FEF9FEF089567
:1002B000FC01918D828D981731F0828DE80FF11D30
:1002C000858D90E008958FEF9FEF0895FC01918D4B
:1002D000228D892F90E0805C9F4F821B91098F7344
:1002E0009927089586EC91E00E94660121E0892B10
:1002F00009F420E0822F0895FC01848DDF01A80F0E
:10030000B11DA35ABF4F2C91848D90E001968F733D
:100310009927848FA689B7892C93A089B1898C915C
:10032000837080648C93938D848D981306C00288AB
:10033000F389E02D80818F7D80830895EF92FF9275
:100340000F931F93CF93DF93EC0181E0888F9B8DF8
:100350008C8D981305C0E889F989808185FD26C0B8
:10036000F62E0B8D10E00F5F1F4F0F731127E02E3D
:100370008C8DE8120CC00FB607FCFACFE889F9891A
:10038000808185FFF5CFCE010E947C01F1CF8B8D5E
:10039000FE01E80FF11DE35AFF4FF0829FB7F8947A
:1003A0000B8FEA89FB89808180620AC09FB7F8942D
:1003B000EE89FF896083E889F98980818370806490
:1003C00080839FBF81E090E0DF91CF911F910F91DB
:1003D000FF90EF900895CF93DF93EC01888D8823F1
:1003E000C9F0EA89FB89808185FD05C0A889B989A2
:1003F0008C9186FD0FC00FB607FCF5CF808185FF7D
:10040000F2CFA889B9898C9185FFEDCFCE010E94EA
:100410007C01E7CFDF91CF91089580E090E0892BB8
:1004200029F00E94720181110C9400000895BC0112
:100430006E5F7F4FDC01ED91FC910190F081E02D2A
:1004400040E0099591E0811190E0892F08950E9484
:10045000C00A1F920F920FB60F9211242F933F9351
:100460004F935F936F937F938F939F93AF93BF93BC
:10047000EF93FF9386EC91E00E947C01FF91EF9156
:10048000BF91AF919F918F917F916F915F914F91AC
:100490003F912F910F900FBE0F901F9018951F92B4
:1004A0000F920FB60F9211242F938F939F93EF9378
:1004B000FF93E091D601F091D7018081E091DC01BA
:1004C000F091DD0182FD12C090818091DF018F5F8C
:1004D0008F732091E001821751F0E091DF01F0E08D
:1004E000EA53FE4F958F8093DF0101C08081FF9119
:1004F000EF919F918F912F910F900FBE0F901F90B2
:10050000189508958EBD00000DB407FEFDCF8EB581
:1005100008958CBD9DBD08951F93CF93DF93EC018B
:10052000162F83E590E00E94890260E08E850E948C
:10053000E505812F80680E94820280E00E9482028D
:10054000182F61E08E850E94E505812FDF91CF9104
:100550001F9108950F931F93CF93DF93EC01062F04
:10056000142F83E590E00E94890260E08E850E944E
:10057000E505802F0E948202812F0E94820261E0A5
:100580008E85DF91CF911F910F910C94E5058F928D
:100590009F92AF92CF92EF92FF920F931F93CF93C0
:1005A000DF9300D000D01F92CDB7DEB74C0182E0C0
:1005B0008D8340E064E2C4010E94AA0240E066E24A
:1005C000C4010E94AA0246E268E4C4010E94AA0291
:1005D00086E28B838D81823040F16CE1C4010E9400
:1005E0008C02482F4F776CE1C4010E94AA0287E079
:1005F0008C83A12CC12CCE0104967C018E010B5F53
:100600001F4F9E012F5F3F4F41E0BE016D5F7F4F47
:10061000C4010E94460681110BC08D81823039F4DD
:1006200081E09C81911104C008C084E001C081E098
:1006300091E0823019F090E001C091E0892F0F9095
:100640000F900F900F900F90DF91CF911F910F910E
:10065000FF90EF90CF90AF909F908F900895CF92A2
:10066000DF92EF92FF920F931F93CF93DF93EC01F2
:100670006B01142F790140E062E00E94AA0244E07D
:100680006AE0CE010E94AA0240E864E1CE010E9425
:10069000AA02A601612FCE010E94140643E062E087
:1006A000CE010E94AA0208E813E16AE0CE010E948E
:1006B0008C0282FF13C040E062E0CE010E94AA02D9
:1006C00064E4CE010E948C02F701808362E4CE01D3
:1006D0000E948C02F701818380E004C0015011095F
:1006E00021F783E0DF91CF911F910F91FF90EF9061
:1006F000DF90CF9008952F923F924F925F926F922A
:100700007F928F929F92AF92BF92CF92DF92EF92A1
:10071000FF920F931F93CF93DF93CDB7DEB72C9744
:100720000FB6F894DEBF0FBECDBF413508F00BC148
:10073000342E3B014C016CE10E948C02482F4F7714
:100740006CE1C4010E94AA022224239432E0231601
:1007500091F083E02816E1F091E02912F6C083E9D8
:1007600089833320D1F081E0F3019081953008F442
:1007700080E0B12C17C0F5E9F983332081F081E0E6
:10078000F3019081983008F480E043E0B42E0AC071
:1007900087E9898336E0B32E04C0B12C02C023E080
:1007A000B22E80E0D32CF8E0BF9ED0181124D7FCE5
:1007B000D12C882321F098E89B8333E001C032E0FC
:1007C00021E09D2D977009F420E09D2D959595953C
:1007D0009595290F31F4882309F492C038E0D30E9F
:1007E0008FC0811102C094E001C093E0291708F482
:1007F000922FEB2DF0E03196E60DF71D232F41915E
:10080000A1E0B0E0AC0FBD1FA20FB11D4C932F5F54
:10081000422F431B491798F3DECF8111DEC09FE1C1
:100820009D150CF494C080E2D82E90E79A839B81AA
:100830008C8189279D8189279E8189278F839E01AD
:10084000285F3F4F47E0BE016F5F7F4FC4010E94AA
:100850002F038111A3C01A86E3E0EB87CE01079630
:100860002C0199E09C87CA844C2D4295407F4C0D09
:100870006AE1C4010E94AA02A12CCE010A967C0161
:100880008E01055F1F4F92014C85BE016F5F7F4F48
:10089000C4010E944606182F823009F0BECF6CE1D9
:1008A000C4010E948C0285FD98C08F7109F480E21A
:1008B000282F30E04D2DDD0C550B421753070CF05F
:1008C00044C0D82E85958595859591E0980F422F47
:1008D000477081E009F480E0890FE1E0F0E0EC0F7F
:1008E000FD1FE80FF11D215031092770332781E0EA
:1008F00090E001C0880F2A95EAF79081892B8083C8
:100900008FE18D150CF491CF9D2D97709A878D2DC9
:100910008595859585958E5F292FE0E18E9F200D29
:1009200011242A8321E0911101C020E0280F2C8797
:1009300044244394512C4C0E5D1E480E511CF9E08A
:10094000F81BFB8790CF16E048C015E046C08B81AE
:10095000883809F43FC082E094E0EB2DF0E0319656
:10096000E60DF71D980FA1E0B0E0AC0FBD1FA80F7A
:10097000B11D2C9121938F5F8913F5CF8B85833027
:1009800029F58A85811122C09E012D5F3F4F41E0EC
:10099000B201C4010E942F03882311F0182F1DC03B
:1009A0009B81F2018181981313C09C8182819813ED
:1009B0000FC0808182FF02C02394C8CEF3018387D9
:1009C000822D880F820D8F5F808307C011E005C0E4
:1009D00017E003C083E093E0C0CF812F2C960FB6C1
:1009E000F894DEBF0FBECDBFDF91CF911F910F9165
:1009F000FF90EF90DF90CF90BF90AF909F908F903F
:100A00007F906F905F904F903F902F9008953FB7E9
:100A1000F8948091780290917902A0917A02B09135
:100A20007B0226B5A89B05C02F3F19F00196A11D9A
:100A3000B11D3FBFBA2FA92F982F8827820F911D74
:100A4000A11DB11DBC01CD0142E0660F771F881FBB
:100A5000991F4A95D1F70895009769F0FC0101901C
:100A60000020E9F73197AF01481B590BBC0186EC18
:100A700091E00C94070180E090E008958F929F929E
:100A8000AF92BF920F931F93CF93DF93CDB7DEB793
:100A9000A1970FB6F894DEBF0FBECDBF19A24230AA
:100AA00008F44AE08E010F5D1F4F842E912CA12C7B
:100AB000B12CA50194010E94980AE62FB901CA0140
:100AC00001501109EA3014F4E05D01C0E95CD8017D
:100AD000EC93232B242B252B61F7C8010E942C05B6
:100AE000A1960FB6F894DEBF0FBECDBFDF91CF91B8
:100AF0001F910F91BF90AF909F908F9008950C948D
:100B00002C0580EC91E00C942C058F929F92AF9273
:100B1000BF92CF92DF92EF92FF920E9407054B01A6
:100B20005C0182E3C82ED12CE12CF12C0E94070538
:100B3000DC01CB0188199909AA09BB09883E9340B9
:100B4000A105B10598F321E0C21AD108E108F10826
:100B500088EE880E83E0981EA11CB11CC114D1043C
:100B6000E104F10419F7FF90EF90DF90CF90BF9070
:100B7000AF909F908F900895833081F028F481305A
:100B800099F08230A1F008958730A9F08830B9F04B
:100B90008430D1F4809180008F7D03C080918000EB
:100BA0008F7780938000089584B58F7702C084B5D5
:100BB0008F7D84BD08958091B0008F7703C08091B0
:100BC000B0008F7D8093B00008951F93CF93DF9383
:100BD000282F30E0F901ED55FE4F8491F901E157DE
:100BE000FE4FD491F901E558FE4FC491CC23C1F0DA
:100BF000162F81110E94BC05EC2FF0E0EE0FFF1FB5
:100C0000EF58FE4FA591B4919FB7F894111104C00D
:100C10008C91D095D82302C0EC91DE2BDC939FBF42
:100C2000DF91CF911F910895DF92EF92FF920F9382
:100C30001F93CF93DF938C01F62ED42EE52E83E500
:100C400090E00E94890260E0F80186850E94E50537
:100C500082E10E948202CD2DDE2DCE018F0D911DED
:100C60007C01EC16FD0621F089910E948202F9CFE9
:100C700061E0F80186850E94E505DF91CF911F9123
:100C80000F91FF90EF90DF900C9481024F925F9252
:100C90006F927F928F929F92AF92BF92CF92DF928C
:100CA000EF92FF920F931F93CF93DF9300D0CDB7B6
:100CB000DEB74C012B01D42E3901E114F10419F0F7
:100CC000F701408101C040E0B42EF0E1CF9EB00CAE
:100CD000112440E062E0C4010E94AA024FE768E0EC
:100CE000C4010E94AA0240E864E1C4010E94AA0271
:100CF000A2016D2DC4010E9414064B2D6AE1C401AE
:100D00000E94AA024CE062E0C4010E94AA026AE1C9
:100D1000C4010E948C02482F40686AE1C4010E940D
:100D2000AA0280ED482E87E0582E68E0C4010E9498
:100D30008C02982F907341F480FD04C081E0481A22
:100D4000510899F783E0A0C06CE0C4010E948C02B6
:100D5000D82E837109F095C06114710409F45AC04A
:100D60000115110509F456C064E1C4010E948C020A
:100D7000B82EF80180818B1508F47DC0B082BB20AD
:100D8000F1F183E590E00E94890260E0F40186853C
:100D90000E94E505BA9482E90E948202CC20A9F063
:100DA0008FEF90E02C0101C0440CCA94EAF782E96D
:100DB0000E948202242D2095F301908192238421A8
:100DC000892B8083CC24C39401C0C12C4C2C512C82
:100DD000460C571CCB1438F482E90E948202F201BF
:100DE0008083C394F3CF80E00E948202F20180836B
:100DF00061E0F40186850E94E5050E94810268E1B8
:100E0000C4010E948C028770E114F10421F0F70103
:100E1000808301C080E0D3FC30C06114710479F19B
:100E20000115110561F1AA2051F1F801408141300D
:100E300021F4843041F58FEF27C0423020F1811139
:100E400022C042509E012F5F3F4FB301C4010E9458
:100E50002F03811119C0F8018081680E711CF30104
:100E600032979081898198130EC0319690818A8142
:100E7000981309C004C084E007C082E005C080E088
:100E800003C081E001C087E00F900F90DF91CF9108
:100E90001F910F91FF90EF90DF90CF90BF90AF9098
:100EA0009F908F907F906F905F904F900895CF9319
:100EB000DF9390E0FC01E157FE4F2491FC01E558DF
:100EC000FE4F8491882361F190E0880F991FFC0107
:100ED000E959FE4FC591D491FC01EF58FE4FA59101
:100EE000B491611109C09FB7F8948881209582233D
:100EF0008883EC912E230BC0623061F49FB7F89485
:100F00008881322F309583238883EC912E2B2C936C
:100F10009FBF06C08FB7F894E8812E2B28838FBF20
:100F2000DF91CF9108951F920F920FB60F92112467
:100F30002F933F938F939F93AF93BF9380917402AE
:100F400090917502A0917602B09177023091730270
:100F500023E0230F2D3720F40196A11DB11D05C0FC
:100F600026E8230F0296A11DB11D209373028093E2
:100F7000740290937502A0937602B09377028091E9
:100F8000780290917902A0917A02B0917B02019649
:100F9000A11DB11D8093780290937902A0937A02EB
:100FA000B0937B02BF91AF919F918F913F912F9111
:100FB0000F900FBE0F901F901895CF93DF9300D026
:100FC00000D0CDB7DEB7789484B5826084BD84B597
:100FD000816084BD85B5826085BD85B5816085BD34
:100FE00080916E00816080936E00109281008091EC
:100FF0008100826080938100809181008160809374
:101000008100809180008160809380008091B10098
:1010100084608093B1008091B00081608093B000C3
:1010200080917A00846080937A0080917A00826057
:1010300080937A0080917A00816080937A00809119
:101040007A00806880937A001092C100E091D60106
:10105000F091D70182E08083E091D201F091D30139
:101060001082E091D401F091D50180E1808310924B
:10107000DE01E091DA01F091DB0186E08083E0910E
:10108000D801F091D901808180618083E091D801FD
:10109000F091D901808188608083E091D801F0913E
:1010A000D901808180688083E091D801F091D901D5
:1010B00080818F7D80838DE591E00E942C050E94C8
:1010C00081051FB7F8948091C401811127C0E5E81C
:1010D000F1E08491E9E9F1E09491E82FF0E0EE0F7E
:1010E000FF1FE959FE4FA591B491EC91E92321F43A
:1010F00061E08AE00E94E50561E08AE00E9457070E
:101100008CB580618CBD8CB580648CBD61E08DE058
:101110000E94570761E08BE00E9457078091C4014D
:101120008F5F8093C4011FBF61E0809171020E94B4
:10113000570761E0809171020E94E505809172027B
:101140008F3F41F44FE062E083E692E00E94AA0202
:1011500013E025C060E00E9457072091720230E042
:10116000F901ED55FE4F8491F901E157FE4F0491CD
:10117000F901E558FE4F14911123D9F081110E9415
:10118000BC05E12FF0E0EE0FFF1FE859FF4FA591DE
:10119000B491EC91E02369F0D5CF1150F9F00E94A1
:1011A000850562E083E692E00E948C0284FF16C00F
:1011B000F4CF61E0809172020E94570760E0809155
:1011C00072020E94E50583E090E00197F1F761E08B
:1011D000809172020E94E5050E94850540E064E26C
:1011E00083E692E00E94AA0240E066E283E692E093
:1011F0000E94AA0246E268E483E692E00E94AA0204
:1012000040E864E583E692E00E94AA0249EA66E5C6
:1012100083E692E00E94AA0243E068E583E692E05A
:101220000E94AA0248EE6AE583E692E00E94AA02C2
:1012300040E46AE283E692E00E94AA024DE362E2A1
:1012400083E692E00E94AA0268E283E692E00E94AE
:101250008C02982F9370933039F0482F436068E2E6
:1012600083E692E00E94AA0283E692E00E94C7020F
:10127000882309F4AFC083E692E00E941702882316
:1012800009F4A8C070906502B0907002C090C501CA
:10129000C394C092C5010C2C000CDD08EE08FF08B9
:1012A000F7FE9BC06DE286EC91E00E949E016627EE
:1012B0007727CB016C197D098E099F094AE00E94AE
:1012C0003E0583E891E00E947F05E0917002EF7790
:1012D000E13408F0A0C0F0E0E050FF4F808185309D
:1012E00009F4A2C008F087C0823009F07AC0EBE1AF
:1012F000F1E08F01F80164916111A8C00E9481059D
:1013000081E991E00E947F05FFE0FB1520F089E96B
:1013100091E00E947F056B2D70E080E090E040E15D
:101320000E943E050E9481058BE991E00E947F05A5
:10133000872D90E0A0E0B0E04AE0BC01CD010E9422
:101340003E050E94810586EA91E00E947F0586E6BF
:10135000A82E82E0B82E750100E010E0C72CD12C39
:1013600081E0C81AD108071508F47AC00E948105E7
:1013700084EB91E00E947F0500E010E0E72CF12C67
:10138000F1E0EF1AF108071508F488C00E94810502
:101390000E94810580E589831A829E012D5F3F4F5F
:1013A00042E0BE016F5F7F4F83E692E00E942F0311
:1013B000811110C0A12CC12CE12CF12C00E010E017
:1013C00020E030E044E0BE016F5F7F4F83E692E0B3
:1013D0000E9446060E940D0247CF4AE0C701B601AF
:1013E0006ECF833018F48130C9F015C0833081F09E
:1013F0008430B9F010C0883001F128F48630B9F09B
:101400008730C1F008C08930D9F08F3FE1F003C0C8
:10141000E4E0F1E06ECFE2E7F0E06BCFE3E4F1E08F
:1014200068CFE9EFF0E065CFEEEEF0E062CFECECF4
:10143000F0E05FCFE0ECF0E05CCFE1EBF0E059CF23
:10144000E2EAF0E056CFEFE7F0E053CF86EC91E030
:101450000E949E010F5F1F4F892B09F04BCF4ECF8B
:101460004701F7018081803120F489E991E00E94F1
:101470007F05FFEFEF1AFF0AF401608170E080E062
:1014800090E040E10E943E050C151D0524F482EB1E
:1014900091E00E947F050F5F1F4F65CFF5016191BD
:1014A0005F0170E080E090E04AE00E943E050E158A
:1014B0001F0524F48EEB91E00E947F050F5F1F4F04
:1014C00062CFE6ECF1E01382128288EE93E0A0E0B6
:1014D000B0E084839583A683B78385E491E091830C
:1014E000808385EC90E09587848784EC90E09787F3
:1014F000868780EC90E0918B808B81EC90E0938BE1
:10150000828B82EC90E0958B848B86EC90E0978BBD
:10151000868B118E128E138E148EE3E6F2E087E531
:1015200091E0918380838AE0868789E087870895A8
:10153000A1E21A2EAA1BBB1BFD010DC0AA1FBB1FD7
:10154000EE1FFF1FA217B307E407F50720F0A21B49
:10155000B30BE40BF50B661F771F881F991F1A94B6
:1015600069F760957095809590959B01AC01BD01E0
:10157000CF010895EE0FFF1F0590F491E02D09941F
:0E15800081E090E0F8940C94C50AF894FFCF37
:10158E0006090000FF000000040300000000000038
:10159E00070700000000000005000000000000002A
:1015AE00010000000000000000000000000000002C
:1015BE00000000000000000000000000000000001D
:1015CE0002000000009E0107013501EB0166014497
:1015DE00015801000000007B03C70217024D494667
:1015EE004152452031332E35364D487A20524649E8
:1015FE00442072656164657220697320726561644E
:10160E007921002C205049434320747970653A208B
:10161E000053414B3A203078003000554944205356
:10162E00697A653A20005549442028484558293A98
:10163E0020003A005549442028444543293A2000C9
:04164E000D0A000081
:103800000C94341C0C94511C0C94511C0C94511CA1
:103810000C94511C0C94511C0C94511C0C94511C74
:103820000C94511C0C94511C0C94511C0C94511C64
:103830000C94511C0C94511C0C94511C0C94511C54
:103840000C94511C0C94511C0C94511C0C94511C44
:103850000C94511C0C94511C0C94511C0C94511C34
:103860000C94511C0C94511C11241FBECFEFD4E0BA
:10387000DEBFCDBF11E0A0E0B1E0E4EAFFE302C0AB
:1038800005900D92A230B107D9F712E0A2E0B1E0A5
:1038900001C01D92AD30B107E1F70E94361D0C94B6
:1038A000D01F0C94001C982F9595959595959595FE
:1038B000905D8F708A307CF0282F295A8091C0004B
:1038C00085FFFCCF9093C6008091C00085FFFCCFA0
:1038D0002093C6000895282F205DF0CF982F809167
:1038E000C00085FFFCCF9093C6000895EF92FF9231
:1038F0000F931F93EE24FF2487018091C00087FD62
:1039000017C00894E11CF11C011D111D81E4E8168B
:1039100082E4F8068FE0080780E0180770F3E09172
:103920000401F091050109958091C00087FFE9CF5E
:103930008091C6001F910F91FF90EF9008950E9413
:10394000761C982F8091C00085FFFCCF9093C60015
:1039500091362CF490330CF09053892F089597559D
:10396000892F08951F930E949F1C182F0E949F1C4F
:103970001295107F810F1F910895882351F0982F81
:1039800091508091C00087FFFCCF8091C6009923A1
:10399000B9F708951F93182F0E94761C803249F0C2
:1039A000809103018F5F809303018530C1F01F91E7
:1039B00008958091C00085FFFCCF84E18093C6000C
:1039C0008091C00085FFFCCF1093C6008091C0009D
:1039D00085FFFCCF80E18093C6001F910895E091A0
:1039E0000401F091050109951F9108950E94761C2C
:1039F000803241F0809103018F5F80930301853015
:103A000081F008958091C00085FFFCCF84E1809310
:103A1000C6008091C00085FFFCCF80E18093C60086
:103A20000895E0910401F09105010995089510921F
:103A30000A028823D1F090E040E951E02D9A28EE67
:103A400033E0FA013197F1F721503040D1F72D984A
:103A500028EE33E0FA013197F1F721503040D1F7E9
:103A60009F5F981758F380930A0208953F924F92F0
:103A70005F926F927F928F929F92AF92BF92CF92FE
:103A8000DF92EF92FF920F931F93CF93DF9300008B
:103A900083E38093C4001092C50088E18093C10045
:103AA00086E08093C2005098589A259A81E00E943F
:103AB000171D44E1F42E3EE1E32E24E9D22E96E0D8
:103AC000C92E80E1B82EAA24A39401E4902E16E515
:103AD000812EB2E57B2EA0E26A2EF9E45F2EE3E5AB
:103AE0004E2E70E5372E0E94761C8033B1F1813363
:103AF00009F441C0803409F479C0813409F48CC0E0
:103B0000823471F1853409F47BC0803531F182351E
:103B100021F1813511F1853509F48DC0863509F41F
:103B20009DC0843609F4AEC0843709F41BC18537C3
:103B300009F485C1863709F47AC0809103018F5F4B
:103B400080930301853079F6E0910401F09105013D
:103B500009950E94761C803351F60E94F61CC3CF53
:103B600093E18091C00087FFFCCF8091C60099232C
:103B7000A1F39150F6CF0E94761C8032F1F680912D
:103B8000C00085FFFCCFF092C6008091C00085FF89
:103B9000FCCF9092C6008091C00085FFFCCF809240
:103BA000C6008091C00085FFFCCF7092C600809156
:103BB000C00085FFFCCF6092C6008091C00085FFE9
:103BC000FCCF5092C6008091C00085FFFCCF409290
:103BD000C6008091C00085FFFCCF3092C600809166
:103BE000C00085FFFCCFB092C6007DCF0E94761C3E
:103BF000863808F4B2CF0E94761C0E94F61C73CF60
:103C000094E08091C00087FFFCCF8091C60099238B
:103C100009F4A3CF9150F5CF0E94761C8038D1F0E3
:103C2000813861F1823809F499C0883979F080E0EF
:103C30000E94CA1C58CF0E94761C809306010E94E5
:103C4000761C809307010E94F61C4DCF83E00E94F2
:103C5000CA1C49CF82E00E94CA1C45CF0E94761C34
:103C6000803309F486C192E08091C00087FFFCCFC9
:103C70008091C6009923D9F29150F6CF81E00E943D
:103C8000CA1C31CF0E94761C809309020E94761CC8
:103C90008093080280910C028E7F80930C020E9418
:103CA000761C853429F480910C02816080930C028B
:103CB0008091080290910902892B89F000E010E0C0
:103CC0000E94761CF801E85FFE4F80830F5F1F4F54
:103CD00080910802909109020817190788F30E9441
:103CE000761C803209F029CF80910C0280FFD1C070
:103CF0004091060150910701440F551F5093070151
:103D000040930601A0910802B09109021097C9F0F2
:103D1000E8E0F1E09A01BD016E0F7F1FF999FECF37
:103D200032BD21BD819180BDFA9AF99A2F5F3F4F34
:103D3000E617F70799F74A0F5B1F50930701409367
:103D400006018091C00085FFFCCFF092C6008091F3
:103D5000C00085FFFCCFB092C600C5CE80E10E94B6
:103D6000CA1CC1CE0E94761C809309020E94761C58
:103D7000809308028091060190910701880F991F96
:103D800090930701809306010E94761C853409F404
:103D90007AC080910C028E7F80930C020E94761C68
:103DA000803209F0A0CE8091C00085FFFCCFF09258
:103DB000C600A0910802B09109021097B9F1809154
:103DC0000C02182F1170082F0270E0910601F0917B
:103DD00007019F012F5F3F4FB90140E050E01123E1
:103DE000B1F4002339F494918091C00085FFFCCF99
:103DF0009093C6004F5F5F4FCB010196F9014A17C0
:103E00005B0780F4BC012F5F3F4F112351F3F999F9
:103E1000FECFF2BDE1BDF89A90B58091C00085FF5C
:103E2000FCCFE6CF70930701609306018091C0003C
:103E300085FDD9CE8091C00085FFF8CFD4CE0E94F9
:103E4000761C803209F079CE8091C00085FFFCCFCE
:103E5000F092C6008091C00085FFFCCFE092C600C2
:103E60008091C00085FFFCCFD092C6008091C00039
:103E700085FFFCCFC092C6008091C00085FFFCCFBB
:103E8000B092C60030CE80910C02816080930C020B
:103E900085CF809107018823880F880B8A21809322
:103EA0000B028091060190910701880F991F909352
:103EB0000701809306018091080280FF09C080916C
:103EC00008029091090201969093090280930802DA
:103ED000F894F999FECF1127E0910601F0910701BE
:103EE000C8E0D1E08091080290910902103091F46D
:103EF0000091570001700130D9F303E0009357009F
:103F0000E8950091570001700130D9F301E1009369
:103F10005700E89509901990009157000170013001
:103F2000D9F301E000935700E8951395103498F009
:103F300011270091570001700130D9F305E000937B
:103F40005700E8950091570001700130D9F301E165
:103F500000935700E8953296029709F0C7CF1030CA
:103F600011F00296E5CF11248091C00085FFE9CEC3
:103F7000ECCE0E94761C0E94761C182F0E94761CA4
:103F8000112351F0113021F086E00E94CA1CABCD04
:103F900084E90E94CA1CA7CD8EE10E94CA1CA3CD51
:043FA000F894FFCFC3
:023FA40080009B
:0400000300003800C1
:00000001FF
